{
  "abi": [
    {
      "inputs": [
        {
          "internalType": "address",
          "name": "personaL1Addr",
          "type": "address"
        },
        {
          "internalType": "address",
          "name": "ovmL2CrossDomainMessengerAddr",
          "type": "address"
        }
      ],
      "stateMutability": "nonpayable",
      "type": "constructor"
    },
    {
      "anonymous": false,
      "inputs": [
        {
          "indexed": true,
          "internalType": "uint256",
          "name": "personaId",
          "type": "uint256"
        },
        {
          "indexed": true,
          "internalType": "address",
          "name": "user",
          "type": "address"
        },
        {
          "indexed": true,
          "internalType": "address",
          "name": "consumer",
          "type": "address"
        },
        {
          "indexed": false,
          "internalType": "bytes4[]",
          "name": "fnSignatures",
          "type": "bytes4[]"
        }
      ],
      "name": "Authorize",
      "type": "event"
    },
    {
      "anonymous": false,
      "inputs": [
        {
          "indexed": true,
          "internalType": "uint256",
          "name": "personaId",
          "type": "uint256"
        },
        {
          "indexed": true,
          "internalType": "address",
          "name": "from",
          "type": "address"
        },
        {
          "indexed": true,
          "internalType": "address",
          "name": "to",
          "type": "address"
        },
        {
          "indexed": false,
          "internalType": "uint256",
          "name": "nonce",
          "type": "uint256"
        }
      ],
      "name": "BridgeChangeOwner",
      "type": "event"
    },
    {
      "anonymous": false,
      "inputs": [
        {
          "indexed": true,
          "internalType": "uint256",
          "name": "personaId",
          "type": "uint256"
        },
        {
          "indexed": false,
          "internalType": "uint256",
          "name": "nonce",
          "type": "uint256"
        }
      ],
      "name": "BridgeNuke",
      "type": "event"
    },
    {
      "anonymous": false,
      "inputs": [
        {
          "indexed": true,
          "internalType": "uint256",
          "name": "personaId",
          "type": "uint256"
        },
        {
          "indexed": true,
          "internalType": "address",
          "name": "user",
          "type": "address"
        },
        {
          "indexed": true,
          "internalType": "address",
          "name": "consumer",
          "type": "address"
        }
      ],
      "name": "Deauthorize",
      "type": "event"
    },
    {
      "anonymous": false,
      "inputs": [
        {
          "indexed": true,
          "internalType": "uint256",
          "name": "personaId",
          "type": "uint256"
        },
        {
          "indexed": true,
          "internalType": "address",
          "name": "user",
          "type": "address"
        },
        {
          "indexed": true,
          "internalType": "address",
          "name": "consumer",
          "type": "address"
        }
      ],
      "name": "Deimpersonate",
      "type": "event"
    },
    {
      "anonymous": false,
      "inputs": [
        {
          "indexed": true,
          "internalType": "uint256",
          "name": "personaId",
          "type": "uint256"
        },
        {
          "indexed": true,
          "internalType": "address",
          "name": "user",
          "type": "address"
        },
        {
          "indexed": true,
          "internalType": "address",
          "name": "consumer",
          "type": "address"
        }
      ],
      "name": "Impersonate",
      "type": "event"
    },
    {
      "inputs": [
        {
          "internalType": "address",
          "name": "",
          "type": "address"
        },
        {
          "internalType": "address",
          "name": "",
          "type": "address"
        }
      ],
      "name": "activePersona",
      "outputs": [
        {
          "internalType": "uint256",
          "name": "nonce",
          "type": "uint256"
        },
        {
          "internalType": "uint256",
          "name": "personaId",
          "type": "uint256"
        }
      ],
      "stateMutability": "view",
      "type": "function"
    },
    {
      "inputs": [
        {
          "internalType": "uint256",
          "name": "personaId",
          "type": "uint256"
        },
        {
          "internalType": "address",
          "name": "user",
          "type": "address"
        },
        {
          "internalType": "address",
          "name": "consumer",
          "type": "address"
        },
        {
          "internalType": "bytes4[]",
          "name": "fnSignatures",
          "type": "bytes4[]"
        }
      ],
      "name": "authorize",
      "outputs": [],
      "stateMutability": "nonpayable",
      "type": "function"
    },
    {
      "inputs": [
        {
          "internalType": "address",
          "name": "to",
          "type": "address"
        },
        {
          "internalType": "uint256",
          "name": "personaId",
          "type": "uint256"
        }
      ],
      "name": "bridgeChangeOwner",
      "outputs": [],
      "stateMutability": "nonpayable",
      "type": "function"
    },
    {
      "inputs": [
        {
          "internalType": "uint256",
          "name": "personaId",
          "type": "uint256"
        }
      ],
      "name": "bridgeNuke",
      "outputs": [],
      "stateMutability": "nonpayable",
      "type": "function"
    },
    {
      "inputs": [
        {
          "internalType": "uint256",
          "name": "personaId",
          "type": "uint256"
        },
        {
          "internalType": "address",
          "name": "user",
          "type": "address"
        },
        {
          "internalType": "address",
          "name": "consumer",
          "type": "address"
        }
      ],
      "name": "deauthorize",
      "outputs": [],
      "stateMutability": "nonpayable",
      "type": "function"
    },
    {
      "inputs": [
        {
          "internalType": "address",
          "name": "consumer",
          "type": "address"
        }
      ],
      "name": "deimpersonate",
      "outputs": [],
      "stateMutability": "nonpayable",
      "type": "function"
    },
    {
      "inputs": [
        {
          "internalType": "address",
          "name": "user",
          "type": "address"
        },
        {
          "internalType": "address",
          "name": "consumer",
          "type": "address"
        }
      ],
      "name": "getActivePersona",
      "outputs": [
        {
          "internalType": "uint256",
          "name": "personaId",
          "type": "uint256"
        }
      ],
      "stateMutability": "view",
      "type": "function"
    },
    {
      "inputs": [
        {
          "internalType": "uint256",
          "name": "personaId",
          "type": "uint256"
        },
        {
          "internalType": "address",
          "name": "consumer",
          "type": "address"
        }
      ],
      "name": "impersonate",
      "outputs": [],
      "stateMutability": "nonpayable",
      "type": "function"
    },
    {
      "inputs": [
        {
          "internalType": "uint256",
          "name": "personaId",
          "type": "uint256"
        },
        {
          "internalType": "address",
          "name": "user",
          "type": "address"
        },
        {
          "internalType": "address",
          "name": "consumer",
          "type": "address"
        },
        {
          "internalType": "bytes4",
          "name": "fnSignature",
          "type": "bytes4"
        }
      ],
      "name": "isAuthorized",
      "outputs": [
        {
          "internalType": "bool",
          "name": "",
          "type": "bool"
        }
      ],
      "stateMutability": "view",
      "type": "function"
    },
    {
      "inputs": [
        {
          "internalType": "address",
          "name": "forwarder",
          "type": "address"
        }
      ],
      "name": "isTrustedForwarder",
      "outputs": [
        {
          "internalType": "bool",
          "name": "",
          "type": "bool"
        }
      ],
      "stateMutability": "view",
      "type": "function"
    },
    {
      "inputs": [],
      "name": "ovmL2CrossDomainMessenger",
      "outputs": [
        {
          "internalType": "contract L2CrossDomainMessenger",
          "name": "",
          "type": "address"
        }
      ],
      "stateMutability": "view",
      "type": "function"
    },
    {
      "inputs": [
        {
          "internalType": "uint256",
          "name": "",
          "type": "uint256"
        }
      ],
      "name": "ownerOf",
      "outputs": [
        {
          "internalType": "address",
          "name": "",
          "type": "address"
        }
      ],
      "stateMutability": "view",
      "type": "function"
    },
    {
      "inputs": [],
      "name": "personaL1",
      "outputs": [
        {
          "internalType": "address",
          "name": "",
          "type": "address"
        }
      ],
      "stateMutability": "view",
      "type": "function"
    },
    {
      "inputs": [],
      "name": "personaOwner",
      "outputs": [
        {
          "internalType": "address",
          "name": "",
          "type": "address"
        }
      ],
      "stateMutability": "view",
      "type": "function"
    },
    {
      "inputs": [
        {
          "internalType": "address",
          "name": "newContractOwner",
          "type": "address"
        }
      ],
      "name": "setOwner",
      "outputs": [],
      "stateMutability": "nonpayable",
      "type": "function"
    },
    {
      "inputs": [
        {
          "internalType": "address",
          "name": "trustedForwarderAddr",
          "type": "address"
        }
      ],
      "name": "setTrustedForwarder",
      "outputs": [],
      "stateMutability": "nonpayable",
      "type": "function"
    },
    {
      "inputs": [],
      "name": "trustedForwarder",
      "outputs": [
        {
          "internalType": "address",
          "name": "",
          "type": "address"
        }
      ],
      "stateMutability": "view",
      "type": "function"
    },
    {
      "inputs": [],
      "name": "versionRecipient",
      "outputs": [
        {
          "internalType": "string",
          "name": "",
          "type": "string"
        }
      ],
      "stateMutability": "pure",
      "type": "function"
    }
  ],
  "bytecode": {
    "object": "0x60c06040523480156200001157600080fd5b5060405162001b9538038062001b9583398101604081905262000034916200007b565b600180546001600160a01b031916331790556001600160a01b0391821660a05216608052620000b3565b80516001600160a01b03811681146200007657600080fd5b919050565b600080604083850312156200008f57600080fd5b6200009a836200005e565b9150620000aa602084016200005e565b90509250929050565b60805160a051611a92620001036000396000818161021e015281816103fc015261119e01526000818161017b015281816103d2015281816104330152818161117401526111d50152611a926000f3fe608060405234801561001057600080fd5b50600436106101365760003560e01c80636352211e116100b25780639641c10111610081578063be7ad16c11610066578063be7ad16c14610381578063da74222814610394578063ebe52869146103a757600080fd5b80639641c1011461035b578063972950251461036e57600080fd5b80636352211e146102c657806365c1ba4b146102fc5780637da0a8771461031c57806387760c301461033a57600080fd5b806346ac8f2b116101095780634ddd7f0c116100ee5780634ddd7f0c14610219578063572b6c05146102405780635f3c04fc1461027f57600080fd5b806346ac8f2b146101c7578063486ff0cd146101da57600080fd5b80630adfc6df1461013b5780630ed6b37f1461015057806313af4035146101635780634413977814610176575b600080fd5b61014e61014936600461159d565b6103ba565b005b61014e61015e3660046115d8565b6105b5565b61014e61017136600461161a565b6107bb565b61019d7f000000000000000000000000000000000000000000000000000000000000000081565b60405173ffffffffffffffffffffffffffffffffffffffff90911681526020015b60405180910390f35b61014e6101d536600461169b565b61091d565b604080518082018252600581527f302e302e31000000000000000000000000000000000000000000000000000000602082015290516101be91906117ad565b61019d7f000000000000000000000000000000000000000000000000000000000000000081565b61026f61024e36600461161a565b60005473ffffffffffffffffffffffffffffffffffffffff91821691161490565b60405190151581526020016101be565b6102b161028d366004611820565b60056020908152600092835260408084209091529082529020805460019091015482565b604080519283526020830191909152016101be565b61019d6102d436600461159d565b60046020526000908152604090205473ffffffffffffffffffffffffffffffffffffffff1681565b60015461019d9073ffffffffffffffffffffffffffffffffffffffff1681565b60005473ffffffffffffffffffffffffffffffffffffffff1661019d565b61034d610348366004611820565b610ada565b6040519081526020016101be565b61026f610369366004611859565b610b72565b61014e61037c3660046118aa565b610d70565b61014e61038f36600461161a565b610f10565b61014e6103a236600461161a565b611078565b61014e6103b53660046118cf565b61115c565b3373ffffffffffffffffffffffffffffffffffffffff7f0000000000000000000000000000000000000000000000000000000000000000161480156104d857507f000000000000000000000000000000000000000000000000000000000000000073ffffffffffffffffffffffffffffffffffffffff167f000000000000000000000000000000000000000000000000000000000000000073ffffffffffffffffffffffffffffffffffffffff16636e296e456040518163ffffffff1660e01b8152600401602060405180830381865afa15801561049c573d6000803e3d6000fd5b505050506040513d601f19601f820116820180604052508101906104c091906118fb565b73ffffffffffffffffffffffffffffffffffffffff16145b610543576040517f08c379a000000000000000000000000000000000000000000000000000000000815260206004820152600f60248201527f4f4e4c595f4c315f504552534f4e41000000000000000000000000000000000060448201526064015b60405180910390fd5b6000818152600260205260408120805460019290610562908490611947565b90915550506000818152600260205260409081902054905182917fb105915ef9339afafabf9db6d98d82479a51b41d40af6aad577cf3d29ab0aa10916105aa91815260200190565b60405180910390a250565b600083815260046020526040902054839073ffffffffffffffffffffffffffffffffffffffff166105e46113d7565b73ffffffffffffffffffffffffffffffffffffffff1614610661576040517f08c379a000000000000000000000000000000000000000000000000000000000815260206004820152601260248201527f4f4e4c595f504552534f4e415f4f574e45520000000000000000000000000000604482015260640161053a565b600084815260036020908152604080832060028352818420548452825280832073ffffffffffffffffffffffffffffffffffffffff87811685529083528184209086168452909152812080547fffffffffffffffffffffffffffffffffffffffffffffffffffffffffffffff00168155906106df60018301826114b7565b505073ffffffffffffffffffffffffffffffffffffffff80841660009081526005602090815260408083209386168352929052206001015484141561075a5773ffffffffffffffffffffffffffffffffffffffff80841660009081526005602090815260408083209386168352929052908120818155600101555b8173ffffffffffffffffffffffffffffffffffffffff168373ffffffffffffffffffffffffffffffffffffffff16857fb8b2be9660c477a79948a28122e414fa74397e7c4e613906bb452c8a5fe14bee60405160405180910390a450505050565b60015473ffffffffffffffffffffffffffffffffffffffff166107dc6113d7565b73ffffffffffffffffffffffffffffffffffffffff1614610859576040517f08c379a000000000000000000000000000000000000000000000000000000000815260206004820152601360248201527f4f4e4c595f434f4e54524143545f4f574e455200000000000000000000000000604482015260640161053a565b73ffffffffffffffffffffffffffffffffffffffff81166108d6576040517f08c379a000000000000000000000000000000000000000000000000000000000815260206004820152600960248201527f5a45524f5f414444520000000000000000000000000000000000000000000000604482015260640161053a565b600180547fffffffffffffffffffffffff00000000000000000000000000000000000000001673ffffffffffffffffffffffffffffffffffffffff92909216919091179055565b600084815260046020526040902054849073ffffffffffffffffffffffffffffffffffffffff1661094c6113d7565b73ffffffffffffffffffffffffffffffffffffffff16146109c9576040517f08c379a000000000000000000000000000000000000000000000000000000000815260206004820152601260248201527f4f4e4c595f504552534f4e415f4f574e45520000000000000000000000000000604482015260640161053a565b6040805180820182526001808252602080830186815260008a81526003835285812060028452868220548252835285812073ffffffffffffffffffffffffffffffffffffffff8b81168352908452868220908a168252835294909420835181547fffffffffffffffffffffffffffffffffffffffffffffffffffffffffffffff001690151517815593518051939493610a699385019291909101906114dc565b509050508273ffffffffffffffffffffffffffffffffffffffff168473ffffffffffffffffffffffffffffffffffffffff16867f150505356c2e12f000a6a0f5bff248011e0e867f96d894b0cea304ad07ea1af085604051610acb919061195f565b60405180910390a45050505050565b73ffffffffffffffffffffffffffffffffffffffff80831660009081526005602090815260408083209385168084528483528184206001810154855260028452918420549084529390915254909114610b34576000610b6b565b73ffffffffffffffffffffffffffffffffffffffff8084166000908152600560209081526040808320938616835292905220600101545b9392505050565b60008481526004602052604081205473ffffffffffffffffffffffffffffffffffffffff85811691161415610ba957506001610d68565b6001610bb6868587611436565b6002811115610bc757610bc76119c5565b1415610bd557506001610d68565b6002610be2868587611436565b6002811115610bf357610bf36119c5565b1415610d6457600085815260036020908152604080832060028352818420548452825280832073ffffffffffffffffffffffffffffffffffffffff808916855290835281842090871684529091528120600101805480602002602001604051908101604052809291908181526020018280548015610cd257602002820191906000526020600020906000905b82829054906101000a900460e01b7bffffffffffffffffffffffffffffffffffffffffffffffffffffffff191681526020019060040190602082600301049283019260010382029150808411610c7f5790505b5050505050905060005b8151811015610d6157837bffffffffffffffffffffffffffffffffffffffffffffffffffffffff1916828281518110610d1757610d176119f4565b60200260200101517bffffffffffffffffffffffffffffffffffffffffffffffffffffffff19161415610d4f57600192505050610d68565b80610d5981611a23565b915050610cdc565b50505b5060005b949350505050565b60008281526004602052604090205473ffffffffffffffffffffffffffffffffffffffff16610d9d6113d7565b73ffffffffffffffffffffffffffffffffffffffff161480610de257506000610dce8383610dc96113d7565b611436565b6002811115610ddf57610ddf6119c5565b14155b610e48576040517f08c379a000000000000000000000000000000000000000000000000000000000815260206004820152600e60248201527f4e4f545f415554484f52495a4544000000000000000000000000000000000000604482015260640161053a565b60408051808201825260008481526002602090815292812054825291810184905290600590610e756113d7565b73ffffffffffffffffffffffffffffffffffffffff90811682526020808301939093526040918201600090812091861680825291845291909120835181559290910151600190920191909155610ec96113d7565b73ffffffffffffffffffffffffffffffffffffffff16837f248adf9f6eb7ac7788b66a409048acb650674c1cbe352cb4e465299ec3d7190560405160405180910390a45050565b610f21610f1b6113d7565b82610ada565b610f87576040517f08c379a000000000000000000000000000000000000000000000000000000000815260206004820152601160248201527f4e4f5f4143544956455f504552534f4e41000000000000000000000000000000604482015260640161053a565b8073ffffffffffffffffffffffffffffffffffffffff16610fa66113d7565b73ffffffffffffffffffffffffffffffffffffffff1660056000610fc86113d7565b73ffffffffffffffffffffffffffffffffffffffff9081168252602080830193909352604091820160009081209187168152925280822060010154905190917f879e260d0e3ff005dd507bd355b0f75cd4edcb7bef9175bc230c8b01b15b55c791a4600560006110366113d7565b73ffffffffffffffffffffffffffffffffffffffff90811682526020808301939093526040918201600090812094909116815292909152812081815560010155565b60015473ffffffffffffffffffffffffffffffffffffffff166110996113d7565b73ffffffffffffffffffffffffffffffffffffffff1614611116576040517f08c379a000000000000000000000000000000000000000000000000000000000815260206004820152601360248201527f4f4e4c595f434f4e54524143545f4f574e455200000000000000000000000000604482015260640161053a565b600080547fffffffffffffffffffffffff00000000000000000000000000000000000000001673ffffffffffffffffffffffffffffffffffffffff831617905550565b50565b3373ffffffffffffffffffffffffffffffffffffffff7f00000000000000000000000000000000000000000000000000000000000000001614801561127a57507f000000000000000000000000000000000000000000000000000000000000000073ffffffffffffffffffffffffffffffffffffffff167f000000000000000000000000000000000000000000000000000000000000000073ffffffffffffffffffffffffffffffffffffffff16636e296e456040518163ffffffff1660e01b8152600401602060405180830381865afa15801561123e573d6000803e3d6000fd5b505050506040513d601f19601f8201168201806040525081019061126291906118fb565b73ffffffffffffffffffffffffffffffffffffffff16145b6112e0576040517f08c379a000000000000000000000000000000000000000000000000000000000815260206004820152600f60248201527f4f4e4c595f4c315f504552534f4e410000000000000000000000000000000000604482015260640161053a565b6000818152600460209081526040808320805473ffffffffffffffffffffffffffffffffffffffff8781167fffffffffffffffffffffffff000000000000000000000000000000000000000083161790925560029093529083208054919092169260019291611350908490611947565b925050819055508273ffffffffffffffffffffffffffffffffffffffff168173ffffffffffffffffffffffffffffffffffffffff16837f9cf5200a09bd3af81a30c5c7ea659bb95dfa66b20a304b00136b19d93930ab2760026000878152602001908152602001600020546040516113ca91815260200190565b60405180910390a4505050565b600060143610801590611401575060005473ffffffffffffffffffffffffffffffffffffffff1633145b1561143157507fffffffffffffffffffffffffffffffffffffffffffffffffffffffffffffffec36013560601c90565b503390565b600083815260036020908152604080832060028352818420548452825280832073ffffffffffffffffffffffffffffffffffffffff858116855290835281842090861684529091528120805460ff1680156114945750600181015415155b156114a3576002915050610b6b565b805460ff1615610d64576001915050610b6b565b5080546000825560070160089004906000526020600020908101906111599190611588565b828054828255906000526020600020906007016008900481019282156115785791602002820160005b8382111561154657835183826101000a81548163ffffffff021916908360e01c02179055509260200192600401602081600301049283019260010302611505565b80156115765782816101000a81549063ffffffff0219169055600401602081600301049283019260010302611546565b505b50611584929150611588565b5090565b5b808211156115845760008155600101611589565b6000602082840312156115af57600080fd5b5035919050565b73ffffffffffffffffffffffffffffffffffffffff8116811461115957600080fd5b6000806000606084860312156115ed57600080fd5b8335925060208401356115ff816115b6565b9150604084013561160f816115b6565b809150509250925092565b60006020828403121561162c57600080fd5b8135610b6b816115b6565b7f4e487b7100000000000000000000000000000000000000000000000000000000600052604160045260246000fd5b80357fffffffff000000000000000000000000000000000000000000000000000000008116811461169657600080fd5b919050565b600080600080608085870312156116b157600080fd5b843593506020808601356116c4816115b6565b935060408601356116d4816115b6565b9250606086013567ffffffffffffffff808211156116f157600080fd5b818801915088601f83011261170557600080fd5b81358181111561171757611717611637565b8060051b6040517fffffffffffffffffffffffffffffffffffffffffffffffffffffffffffffffe0603f8301168101818110858211171561175a5761175a611637565b60405291825284820192508381018501918b83111561177857600080fd5b938501935b8285101561179d5761178e85611666565b8452938501939285019261177d565b989b979a50959850505050505050565b600060208083528351808285015260005b818110156117da578581018301518582016040015282016117be565b818111156117ec576000604083870101525b50601f017fffffffffffffffffffffffffffffffffffffffffffffffffffffffffffffffe016929092016040019392505050565b6000806040838503121561183357600080fd5b823561183e816115b6565b9150602083013561184e816115b6565b809150509250929050565b6000806000806080858703121561186f57600080fd5b843593506020850135611881816115b6565b92506040850135611891816115b6565b915061189f60608601611666565b905092959194509250565b600080604083850312156118bd57600080fd5b82359150602083013561184e816115b6565b600080604083850312156118e257600080fd5b82356118ed816115b6565b946020939093013593505050565b60006020828403121561190d57600080fd5b8151610b6b816115b6565b7f4e487b7100000000000000000000000000000000000000000000000000000000600052601160045260246000fd5b6000821982111561195a5761195a611918565b500190565b6020808252825182820181905260009190848201906040850190845b818110156119b95783517fffffffff00000000000000000000000000000000000000000000000000000000168352928401929184019160010161197b565b50909695505050505050565b7f4e487b7100000000000000000000000000000000000000000000000000000000600052602160045260246000fd5b7f4e487b7100000000000000000000000000000000000000000000000000000000600052603260045260246000fd5b60007fffffffffffffffffffffffffffffffffffffffffffffffffffffffffffffffff821415611a5557611a55611918565b506001019056fea2646970667358221220372b0aa9a369eb6ae59801dce494e887c6c71a5c4bdcb1ac27cf597a4ecd70ea64736f6c634300080b0033",
    "linkReferences": {}
  }
}