{
  "abi": [
    {
      "inputs": [
        {
          "internalType": "address",
          "name": "minterAddress",
          "type": "address"
        }
      ],
      "name": "mintPersona",
      "outputs": [],
      "stateMutability": "nonpayable",
      "type": "function"
    },
    {
      "inputs": [],
      "name": "personaContract",
      "outputs": [
        {
          "internalType": "contract PersonaLike",
          "name": "",
          "type": "address"
        }
      ],
      "stateMutability": "view",
      "type": "function"
    },
    {
      "inputs": [
        {
          "internalType": "address",
          "name": "personaContractAddress",
          "type": "address"
        }
      ],
      "name": "setPersona",
      "outputs": [],
      "stateMutability": "nonpayable",
      "type": "function"
    }
  ],
  "bytecode": {
    "object": "0x608060405234801561001057600080fd5b506101f4806100206000396000f3fe608060405234801561001057600080fd5b50600436106100415760003560e01c8063d3c90b8b14610046578063dc9cb1281461009d578063e231a61a146100b0575b600080fd5b61009b610054366004610181565b600080547fffffffffffffffffffffffff00000000000000000000000000000000000000001673ffffffffffffffffffffffffffffffffffffffff92909216919091179055565b005b61009b6100ab366004610181565b6100f9565b6000546100d09073ffffffffffffffffffffffffffffffffffffffff1681565b60405173ffffffffffffffffffffffffffffffffffffffff909116815260200160405180910390f35b6000546040517f6a62784200000000000000000000000000000000000000000000000000000000815273ffffffffffffffffffffffffffffffffffffffff838116600483015290911690636a62784290602401600060405180830381600087803b15801561016657600080fd5b505af115801561017a573d6000803e3d6000fd5b5050505050565b60006020828403121561019357600080fd5b813573ffffffffffffffffffffffffffffffffffffffff811681146101b757600080fd5b939250505056fea2646970667358221220dd09112517234634bb1cc1ae39f89b1bcd35de32ae8ead6d13912c32a4df4eb564736f6c634300080a0033",
    "linkReferences": {}
  }
}