{
  "abi": [
    {
      "inputs": [
        {
          "internalType": "string",
          "name": "name",
          "type": "string"
        },
        {
          "internalType": "string",
          "name": "symbol",
          "type": "string"
        },
        {
          "internalType": "address",
          "name": "ovmL1CrossDomainMessengerAddr",
          "type": "address"
        },
        {
          "internalType": "address",
          "name": "personaTokenURIGeneratorAddr",
          "type": "address"
        }
      ],
      "stateMutability": "nonpayable",
      "type": "constructor"
    },
    {
      "anonymous": false,
      "inputs": [
        {
          "indexed": true,
          "internalType": "address",
          "name": "owner",
          "type": "address"
        },
        {
          "indexed": true,
          "internalType": "address",
          "name": "spender",
          "type": "address"
        },
        {
          "indexed": true,
          "internalType": "uint256",
          "name": "id",
          "type": "uint256"
        }
      ],
      "name": "Approval",
      "type": "event"
    },
    {
      "anonymous": false,
      "inputs": [
        {
          "indexed": true,
          "internalType": "address",
          "name": "owner",
          "type": "address"
        },
        {
          "indexed": true,
          "internalType": "address",
          "name": "operator",
          "type": "address"
        },
        {
          "indexed": false,
          "internalType": "bool",
          "name": "approved",
          "type": "bool"
        }
      ],
      "name": "ApprovalForAll",
      "type": "event"
    },
    {
      "anonymous": false,
      "inputs": [
        {
          "indexed": false,
          "internalType": "address",
          "name": "recipient",
          "type": "address"
        },
        {
          "indexed": false,
          "internalType": "uint16",
          "name": "bps",
          "type": "uint16"
        }
      ],
      "name": "DefaultRoyaltySet",
      "type": "event"
    },
    {
      "anonymous": false,
      "inputs": [
        {
          "indexed": true,
          "internalType": "address",
          "name": "generator",
          "type": "address"
        }
      ],
      "name": "NewPersonaTokenURIGenerator",
      "type": "event"
    },
    {
      "anonymous": false,
      "inputs": [
        {
          "indexed": false,
          "internalType": "uint256",
          "name": "tokenId",
          "type": "uint256"
        }
      ],
      "name": "TokenRoyaltyRemoved",
      "type": "event"
    },
    {
      "anonymous": false,
      "inputs": [
        {
          "indexed": false,
          "internalType": "uint256",
          "name": "tokenId",
          "type": "uint256"
        },
        {
          "indexed": false,
          "internalType": "address",
          "name": "recipient",
          "type": "address"
        },
        {
          "indexed": false,
          "internalType": "uint16",
          "name": "bps",
          "type": "uint16"
        }
      ],
      "name": "TokenRoyaltySet",
      "type": "event"
    },
    {
      "anonymous": false,
      "inputs": [
        {
          "indexed": true,
          "internalType": "address",
          "name": "from",
          "type": "address"
        },
        {
          "indexed": true,
          "internalType": "address",
          "name": "to",
          "type": "address"
        },
        {
          "indexed": true,
          "internalType": "uint256",
          "name": "id",
          "type": "uint256"
        }
      ],
      "name": "Transfer",
      "type": "event"
    },
    {
      "inputs": [
        {
          "internalType": "address",
          "name": "spender",
          "type": "address"
        },
        {
          "internalType": "uint256",
          "name": "id",
          "type": "uint256"
        }
      ],
      "name": "approve",
      "outputs": [],
      "stateMutability": "nonpayable",
      "type": "function"
    },
    {
      "inputs": [
        {
          "internalType": "address",
          "name": "",
          "type": "address"
        }
      ],
      "name": "balanceOf",
      "outputs": [
        {
          "internalType": "uint256",
          "name": "",
          "type": "uint256"
        }
      ],
      "stateMutability": "view",
      "type": "function"
    },
    {
      "inputs": [],
      "name": "currentPersonaId",
      "outputs": [
        {
          "internalType": "uint256",
          "name": "",
          "type": "uint256"
        }
      ],
      "stateMutability": "view",
      "type": "function"
    },
    {
      "inputs": [],
      "name": "defaultRoyalty",
      "outputs": [
        {
          "internalType": "address",
          "name": "recipient",
          "type": "address"
        },
        {
          "internalType": "uint16",
          "name": "bps",
          "type": "uint16"
        }
      ],
      "stateMutability": "view",
      "type": "function"
    },
    {
      "inputs": [
        {
          "internalType": "uint256",
          "name": "",
          "type": "uint256"
        }
      ],
      "name": "getApproved",
      "outputs": [
        {
          "internalType": "address",
          "name": "",
          "type": "address"
        }
      ],
      "stateMutability": "view",
      "type": "function"
    },
    {
      "inputs": [],
      "name": "getTokenRoyaltiesCount",
      "outputs": [
        {
          "internalType": "uint256",
          "name": "",
          "type": "uint256"
        }
      ],
      "stateMutability": "view",
      "type": "function"
    },
    {
      "inputs": [
        {
          "internalType": "uint256",
          "name": "index",
          "type": "uint256"
        }
      ],
      "name": "getTokenRoyaltyByIndex",
      "outputs": [
        {
          "components": [
            {
              "internalType": "uint256",
              "name": "tokenId",
              "type": "uint256"
            },
            {
              "internalType": "address",
              "name": "recipient",
              "type": "address"
            },
            {
              "internalType": "uint16",
              "name": "bps",
              "type": "uint16"
            }
          ],
          "internalType": "struct IEIP2981RoyaltyOverride.TokenRoyaltyConfig",
          "name": "",
          "type": "tuple"
        }
      ],
      "stateMutability": "view",
      "type": "function"
    },
    {
      "inputs": [
        {
          "internalType": "address",
          "name": "",
          "type": "address"
        },
        {
          "internalType": "address",
          "name": "",
          "type": "address"
        }
      ],
      "name": "isApprovedForAll",
      "outputs": [
        {
          "internalType": "bool",
          "name": "",
          "type": "bool"
        }
      ],
      "stateMutability": "view",
      "type": "function"
    },
    {
      "inputs": [
        {
          "internalType": "address",
          "name": "",
          "type": "address"
        }
      ],
      "name": "isMinter",
      "outputs": [
        {
          "internalType": "bool",
          "name": "",
          "type": "bool"
        }
      ],
      "stateMutability": "view",
      "type": "function"
    },
    {
      "inputs": [
        {
          "internalType": "address",
          "name": "forwarder",
          "type": "address"
        }
      ],
      "name": "isTrustedForwarder",
      "outputs": [
        {
          "internalType": "bool",
          "name": "",
          "type": "bool"
        }
      ],
      "stateMutability": "view",
      "type": "function"
    },
    {
      "inputs": [
        {
          "internalType": "address",
          "name": "to",
          "type": "address"
        }
      ],
      "name": "mint",
      "outputs": [
        {
          "internalType": "uint256",
          "name": "id",
          "type": "uint256"
        }
      ],
      "stateMutability": "nonpayable",
      "type": "function"
    },
    {
      "inputs": [],
      "name": "name",
      "outputs": [
        {
          "internalType": "string",
          "name": "",
          "type": "string"
        }
      ],
      "stateMutability": "view",
      "type": "function"
    },
    {
      "inputs": [
        {
          "internalType": "uint256",
          "name": "personaId",
          "type": "uint256"
        }
      ],
      "name": "nuke",
      "outputs": [],
      "stateMutability": "nonpayable",
      "type": "function"
    },
    {
      "inputs": [],
      "name": "ovmL1CrossDomainMessenger",
      "outputs": [
        {
          "internalType": "contract L1CrossDomainMessenger",
          "name": "",
          "type": "address"
        }
      ],
      "stateMutability": "view",
      "type": "function"
    },
    {
      "inputs": [],
      "name": "owner",
      "outputs": [
        {
          "internalType": "address",
          "name": "",
          "type": "address"
        }
      ],
      "stateMutability": "view",
      "type": "function"
    },
    {
      "inputs": [
        {
          "internalType": "uint256",
          "name": "",
          "type": "uint256"
        }
      ],
      "name": "ownerOf",
      "outputs": [
        {
          "internalType": "address",
          "name": "",
          "type": "address"
        }
      ],
      "stateMutability": "view",
      "type": "function"
    },
    {
      "inputs": [],
      "name": "personaMirrorL2",
      "outputs": [
        {
          "internalType": "address",
          "name": "",
          "type": "address"
        }
      ],
      "stateMutability": "view",
      "type": "function"
    },
    {
      "inputs": [],
      "name": "personaTokenURIGenerator",
      "outputs": [
        {
          "internalType": "contract PersonaTokenURIGenerator",
          "name": "",
          "type": "address"
        }
      ],
      "stateMutability": "view",
      "type": "function"
    },
    {
      "inputs": [
        {
          "internalType": "uint256",
          "name": "tokenId",
          "type": "uint256"
        },
        {
          "internalType": "uint256",
          "name": "value",
          "type": "uint256"
        }
      ],
      "name": "royaltyInfo",
      "outputs": [
        {
          "internalType": "address",
          "name": "",
          "type": "address"
        },
        {
          "internalType": "uint256",
          "name": "",
          "type": "uint256"
        }
      ],
      "stateMutability": "view",
      "type": "function"
    },
    {
      "inputs": [
        {
          "internalType": "address",
          "name": "from",
          "type": "address"
        },
        {
          "internalType": "address",
          "name": "to",
          "type": "address"
        },
        {
          "internalType": "uint256",
          "name": "id",
          "type": "uint256"
        }
      ],
      "name": "safeTransferFrom",
      "outputs": [],
      "stateMutability": "nonpayable",
      "type": "function"
    },
    {
      "inputs": [
        {
          "internalType": "address",
          "name": "from",
          "type": "address"
        },
        {
          "internalType": "address",
          "name": "to",
          "type": "address"
        },
        {
          "internalType": "uint256",
          "name": "id",
          "type": "uint256"
        },
        {
          "internalType": "bytes",
          "name": "data",
          "type": "bytes"
        }
      ],
      "name": "safeTransferFrom",
      "outputs": [],
      "stateMutability": "nonpayable",
      "type": "function"
    },
    {
      "inputs": [
        {
          "internalType": "address",
          "name": "operator",
          "type": "address"
        },
        {
          "internalType": "bool",
          "name": "approved",
          "type": "bool"
        }
      ],
      "name": "setApprovalForAll",
      "outputs": [],
      "stateMutability": "nonpayable",
      "type": "function"
    },
    {
      "inputs": [
        {
          "components": [
            {
              "internalType": "address",
              "name": "recipient",
              "type": "address"
            },
            {
              "internalType": "uint16",
              "name": "bps",
              "type": "uint16"
            }
          ],
          "internalType": "struct IEIP2981RoyaltyOverride.TokenRoyalty",
          "name": "royalty",
          "type": "tuple"
        }
      ],
      "name": "setDefaultRoyalty",
      "outputs": [],
      "stateMutability": "nonpayable",
      "type": "function"
    },
    {
      "inputs": [
        {
          "internalType": "address",
          "name": "minter",
          "type": "address"
        },
        {
          "internalType": "bool",
          "name": "allowMint",
          "type": "bool"
        }
      ],
      "name": "setMinter",
      "outputs": [],
      "stateMutability": "nonpayable",
      "type": "function"
    },
    {
      "inputs": [
        {
          "internalType": "address",
          "name": "newContractOwner",
          "type": "address"
        }
      ],
      "name": "setOwner",
      "outputs": [],
      "stateMutability": "nonpayable",
      "type": "function"
    },
    {
      "inputs": [
        {
          "internalType": "address",
          "name": "personaMirrorAddr",
          "type": "address"
        }
      ],
      "name": "setPersonaMirrorL2",
      "outputs": [],
      "stateMutability": "nonpayable",
      "type": "function"
    },
    {
      "inputs": [
        {
          "internalType": "address",
          "name": "personaTokenURIGeneratorAddr",
          "type": "address"
        }
      ],
      "name": "setPersonaTokenURIGeneratorAddress",
      "outputs": [],
      "stateMutability": "nonpayable",
      "type": "function"
    },
    {
      "inputs": [
        {
          "components": [
            {
              "internalType": "uint256",
              "name": "tokenId",
              "type": "uint256"
            },
            {
              "internalType": "address",
              "name": "recipient",
              "type": "address"
            },
            {
              "internalType": "uint16",
              "name": "bps",
              "type": "uint16"
            }
          ],
          "internalType": "struct IEIP2981RoyaltyOverride.TokenRoyaltyConfig[]",
          "name": "royaltyConfigs",
          "type": "tuple[]"
        }
      ],
      "name": "setTokenRoyalties",
      "outputs": [],
      "stateMutability": "nonpayable",
      "type": "function"
    },
    {
      "inputs": [
        {
          "internalType": "address",
          "name": "trustedForwarderAddr",
          "type": "address"
        }
      ],
      "name": "setTrustedForwarder",
      "outputs": [],
      "stateMutability": "nonpayable",
      "type": "function"
    },
    {
      "inputs": [
        {
          "internalType": "bytes4",
          "name": "interfaceId",
          "type": "bytes4"
        }
      ],
      "name": "supportsInterface",
      "outputs": [
        {
          "internalType": "bool",
          "name": "",
          "type": "bool"
        }
      ],
      "stateMutability": "view",
      "type": "function"
    },
    {
      "inputs": [],
      "name": "symbol",
      "outputs": [
        {
          "internalType": "string",
          "name": "",
          "type": "string"
        }
      ],
      "stateMutability": "view",
      "type": "function"
    },
    {
      "inputs": [
        {
          "internalType": "uint256",
          "name": "personaId",
          "type": "uint256"
        }
      ],
      "name": "tokenURI",
      "outputs": [
        {
          "internalType": "string",
          "name": "",
          "type": "string"
        }
      ],
      "stateMutability": "view",
      "type": "function"
    },
    {
      "inputs": [
        {
          "internalType": "address",
          "name": "from",
          "type": "address"
        },
        {
          "internalType": "address",
          "name": "to",
          "type": "address"
        },
        {
          "internalType": "uint256",
          "name": "id",
          "type": "uint256"
        }
      ],
      "name": "transferFrom",
      "outputs": [],
      "stateMutability": "nonpayable",
      "type": "function"
    },
    {
      "inputs": [],
      "name": "trustedForwarder",
      "outputs": [
        {
          "internalType": "address",
          "name": "",
          "type": "address"
        }
      ],
      "stateMutability": "view",
      "type": "function"
    },
    {
      "inputs": [],
      "name": "versionRecipient",
      "outputs": [
        {
          "internalType": "string",
          "name": "",
          "type": "string"
        }
      ],
      "stateMutability": "pure",
      "type": "function"
    }
  ],
  "bytecode": {
    "object": "0x60a06040523480156200001157600080fd5b50604051620033b6380380620033b6833981016040819052620000349162000234565b8351849084906200004d906000906020850190620000a4565b50805162000063906001906020840190620000a4565b50506001600d5550600b80546001600160a01b031990811633179091556001600160a01b03928316608052600e805492909316911617905550620003009050565b828054620000b290620002c3565b90600052602060002090601f016020900481019282620000d6576000855562000121565b82601f10620000f157805160ff191683800117855562000121565b8280016001018555821562000121579182015b828111156200012157825182559160200191906001019062000104565b506200012f92915062000133565b5090565b5b808211156200012f576000815560010162000134565b634e487b7160e01b600052604160045260246000fd5b600082601f8301126200017257600080fd5b81516001600160401b03808211156200018f576200018f6200014a565b604051601f8301601f19908116603f01168101908282118183101715620001ba57620001ba6200014a565b81604052838152602092508683858801011115620001d757600080fd5b600091505b83821015620001fb5785820183015181830184015290820190620001dc565b838211156200020d5760008385830101525b9695505050505050565b80516001600160a01b03811681146200022f57600080fd5b919050565b600080600080608085870312156200024b57600080fd5b84516001600160401b03808211156200026357600080fd5b620002718883890162000160565b955060208701519150808211156200028857600080fd5b50620002978782880162000160565b935050620002a86040860162000217565b9150620002b86060860162000217565b905092959194509250565b600181811c90821680620002d857607f821691505b60208210811415620002fa57634e487b7160e01b600052602260045260246000fd5b50919050565b60805161308c6200032a600039600081816106b101528181611bf10152612157015261308c6000f3fe608060405234801561001057600080fd5b50600436106102415760003560e01c806370a0823111610145578063b88d4fde116100bd578063cf456ae71161008c578063e985e9c511610071578063e985e9c51461066b578063ef60ceaf14610699578063f4bd7de1146106ac57600080fd5b8063cf456ae714610645578063da7422281461065857600080fd5b8063b88d4fde146105ec578063bb1e07e4146105ff578063c682761214610612578063c87b56dd1461063257600080fd5b80638b5d6fd41161011457806395d89b41116100f957806395d89b41146105ae578063a22cb465146105b6578063aa271e1a146105c957600080fd5b80638b5d6fd4146105855780638da5cb5b1461058e57600080fd5b806370a08231146104d25780637885fdc7146104f25780637da0a8771461055f5780637e9803421461057d57600080fd5b80632a55205a116101d85780635136dcc7116101a75780636352211e1161018c5780636352211e146104685780636a6278421461049e5780636ffa5c62146104bf57600080fd5b80635136dcc714610426578063572b6c051461043957600080fd5b80632a55205a1461037b5780632e38f374146103ba57806342842e0e146103da578063486ff0cd146103ed57600080fd5b8063095ea7b311610214578063095ea7b31461032d5780630d95508d1461034257806313af40351461035557806323b872dd1461036857600080fd5b806301ffc9a7146102465780630653aca51461026e57806306fdde03146102bd578063081812fc146102d2575b600080fd5b6102596102543660046128c9565b6106d3565b60405190151581526020015b60405180910390f35b61028161027c3660046128e6565b6106f3565b604080518251815260208084015173ffffffffffffffffffffffffffffffffffffffff16908201529181015161ffff1690820152606001610265565b6102c5610796565b6040516102659190612975565b6103086102e03660046128e6565b60046020526000908152604090205473ffffffffffffffffffffffffffffffffffffffff1681565b60405173ffffffffffffffffffffffffffffffffffffffff9091168152602001610265565b61034061033b3660046129b1565b610824565b005b6103406103503660046128e6565b6109b4565b6103406103633660046129db565b610a6d565b6103406103763660046129f6565b610bcf565b61038e610389366004612a32565b610be9565b6040805173ffffffffffffffffffffffffffffffffffffffff9093168352602083019190915201610265565b600e546103089073ffffffffffffffffffffffffffffffffffffffff1681565b6103406103e83660046129f6565b610d15565b60408051808201909152600581527f302e302e3100000000000000000000000000000000000000000000000000000060208201526102c5565b610340610434366004612a54565b610eba565b6102596104473660046129db565b60065473ffffffffffffffffffffffffffffffffffffffff91821691161490565b6103086104763660046128e6565b60036020526000908152604090205473ffffffffffffffffffffffffffffffffffffffff1681565b6104b16104ac3660046129db565b610fb3565b604051908152602001610265565b6103406104cd3660046129db565b611086565b6104b16104e03660046129db565b60026020526000908152604090205481565b6007546105309073ffffffffffffffffffffffffffffffffffffffff81169074010000000000000000000000000000000000000000900461ffff1682565b6040805173ffffffffffffffffffffffffffffffffffffffff909316835261ffff909116602083015201610265565b60065473ffffffffffffffffffffffffffffffffffffffff16610308565b6104b16111e8565b6104b1600d5481565b600b546103089073ffffffffffffffffffffffffffffffffffffffff1681565b6102c56111f9565b6103406105c4366004612ac9565b611206565b6102596105d73660046129db565b600f6020526000908152604090205460ff1681565b6103406105fa366004612bc9565b6112d7565b61034061060d3660046129db565b611445565b600c546103089073ffffffffffffffffffffffffffffffffffffffff1681565b6102c56106403660046128e6565b611552565b610340610653366004612ac9565b61168b565b6103406106663660046129db565b61177f565b610259610679366004612c74565b600560209081526000928352604080842090915290825290205460ff1681565b6103406106a7366004612ca7565b611863565b6103087f000000000000000000000000000000000000000000000000000000000000000081565b60006106de82611918565b806106ed57506106ed826119f9565b92915050565b604080516060810182526000808252602082018190529181018290529061071b600984611adc565b60008181526008602090815260409182902082518084018452905473ffffffffffffffffffffffffffffffffffffffff808216835261ffff7401000000000000000000000000000000000000000090920482168385019081528551606081018752968752925116928501929092525116908201529392505050565b600080546107a390612cbf565b80601f01602080910402602001604051908101604052809291908181526020018280546107cf90612cbf565b801561081c5780601f106107f15761010080835404028352916020019161081c565b820191906000526020600020905b8154815290600101906020018083116107ff57829003601f168201915b505050505081565b60008181526003602052604090205473ffffffffffffffffffffffffffffffffffffffff1680610852611aef565b73ffffffffffffffffffffffffffffffffffffffff1614806108c8575073ffffffffffffffffffffffffffffffffffffffff811660009081526005602052604081209061089d611aef565b73ffffffffffffffffffffffffffffffffffffffff16815260208101919091526040016000205460ff165b610933576040517f08c379a000000000000000000000000000000000000000000000000000000000815260206004820152600e60248201527f4e4f545f415554484f52495a454400000000000000000000000000000000000060448201526064015b60405180910390fd5b60008281526004602052604080822080547fffffffffffffffffffffffff00000000000000000000000000000000000000001673ffffffffffffffffffffffffffffffffffffffff87811691821790925591518593918516917f8c5be1e5ebec7d5bd14f71427d1e84f3dd0314c0f7b2291e5b200ac8c7c3b92591a4505050565b600081815260036020526040902054819073ffffffffffffffffffffffffffffffffffffffff166109e3611aef565b73ffffffffffffffffffffffffffffffffffffffff1614610a60576040517f08c379a000000000000000000000000000000000000000000000000000000000815260206004820152601260248201527f4f4e4c595f504552534f4e415f4f574e45520000000000000000000000000000604482015260640161092a565b610a6982611b4e565b5050565b600b5473ffffffffffffffffffffffffffffffffffffffff16610a8e611aef565b73ffffffffffffffffffffffffffffffffffffffff1614610b0b576040517f08c379a000000000000000000000000000000000000000000000000000000000815260206004820152601360248201527f4f4e4c595f434f4e54524143545f4f574e455200000000000000000000000000604482015260640161092a565b73ffffffffffffffffffffffffffffffffffffffff8116610b88576040517f08c379a000000000000000000000000000000000000000000000000000000000815260206004820152600960248201527f5a45524f5f414444520000000000000000000000000000000000000000000000604482015260640161092a565b600b80547fffffffffffffffffffffffff00000000000000000000000000000000000000001673ffffffffffffffffffffffffffffffffffffffff92909216919091179055565b610bda838383611d07565b610be4828261202c565b505050565b600082815260086020526040812054819073ffffffffffffffffffffffffffffffffffffffff1615610c795760008481526008602052604090205473ffffffffffffffffffffffffffffffffffffffff81169061271090610c669074010000000000000000000000000000000000000000900461ffff1686612d3c565b610c709190612d79565b91509150610d0e565b60075473ffffffffffffffffffffffffffffffffffffffff1615801590610cbd575060075474010000000000000000000000000000000000000000900461ffff1615155b15610d075760075473ffffffffffffffffffffffffffffffffffffffff81169061271090610c669074010000000000000000000000000000000000000000900461ffff1686612d3c565b5060009050805b9250929050565b610d20838383611d07565b73ffffffffffffffffffffffffffffffffffffffff82163b1580610e5457507f150b7a020000000000000000000000000000000000000000000000000000000073ffffffffffffffffffffffffffffffffffffffff831663150b7a02610d84611aef565b6040517fffffffff0000000000000000000000000000000000000000000000000000000060e084901b16815273ffffffffffffffffffffffffffffffffffffffff9182166004820152908716602482015260448101859052608060648201526000608482015260a4016020604051808303816000875af1158015610e0c573d6000803e3d6000fd5b505050506040513d601f19601f82011682018060405250810190610e309190612db4565b7fffffffff0000000000000000000000000000000000000000000000000000000016145b610bda576040517f08c379a000000000000000000000000000000000000000000000000000000000815260206004820152601060248201527f554e534146455f524543495049454e5400000000000000000000000000000000604482015260640161092a565b600b5473ffffffffffffffffffffffffffffffffffffffff16610edb611aef565b73ffffffffffffffffffffffffffffffffffffffff1614610f58576040517f08c379a000000000000000000000000000000000000000000000000000000000815260206004820152601360248201527f4f4e4c595f434f4e54524143545f4f574e455200000000000000000000000000604482015260640161092a565b610a698282808060200260200160405190810160405280939291908181526020016000905b82821015610fa957610f9a60608302860136819003810190612de3565b81526020019060010190610f7d565b50505050506121c9565b6000600f6000610fc1611aef565b73ffffffffffffffffffffffffffffffffffffffff16815260208101919091526040016000205460ff16611051576040517f08c379a000000000000000000000000000000000000000000000000000000000815260206004820152600b60248201527f4f4e4c595f4d494e544552000000000000000000000000000000000000000000604482015260640161092a565b61105d82600d54612422565b61106982600d5461202c565b50600d8054908190600061107c83612e48565b9190505550919050565b600b5473ffffffffffffffffffffffffffffffffffffffff166110a7611aef565b73ffffffffffffffffffffffffffffffffffffffff1614611124576040517f08c379a000000000000000000000000000000000000000000000000000000000815260206004820152601360248201527f4f4e4c595f434f4e54524143545f4f574e455200000000000000000000000000604482015260640161092a565b73ffffffffffffffffffffffffffffffffffffffff81166111a1576040517f08c379a000000000000000000000000000000000000000000000000000000000815260206004820152600960248201527f5a45524f5f414444520000000000000000000000000000000000000000000000604482015260640161092a565b600c80547fffffffffffffffffffffffff00000000000000000000000000000000000000001673ffffffffffffffffffffffffffffffffffffffff92909216919091179055565b60006111f460096125bb565b905090565b600180546107a390612cbf565b8060056000611213611aef565b73ffffffffffffffffffffffffffffffffffffffff90811682526020808301939093526040918201600090812091871680825291909352912080547fffffffffffffffffffffffffffffffffffffffffffffffffffffffffffffff001692151592909217909155611282611aef565b73ffffffffffffffffffffffffffffffffffffffff167f17307eab39ab6107e8899845ad3d59bd9653f200f220920489ca2b5937696c31836040516112cb911515815260200190565b60405180910390a35050565b6112e2848484611d07565b73ffffffffffffffffffffffffffffffffffffffff83163b15806113cf57507f150b7a020000000000000000000000000000000000000000000000000000000073ffffffffffffffffffffffffffffffffffffffff841663150b7a02611346611aef565b8786866040518563ffffffff1660e01b81526004016113689493929190612e81565b6020604051808303816000875af1158015611387573d6000803e3d6000fd5b505050506040513d601f19601f820116820180604052508101906113ab9190612db4565b7fffffffff0000000000000000000000000000000000000000000000000000000016145b611435576040517f08c379a000000000000000000000000000000000000000000000000000000000815260206004820152601060248201527f554e534146455f524543495049454e5400000000000000000000000000000000604482015260640161092a565b61143f838361202c565b50505050565b600b5473ffffffffffffffffffffffffffffffffffffffff16611466611aef565b73ffffffffffffffffffffffffffffffffffffffff16146114e3576040517f08c379a000000000000000000000000000000000000000000000000000000000815260206004820152601360248201527f4f4e4c595f434f4e54524143545f4f574e455200000000000000000000000000604482015260640161092a565b600e80547fffffffffffffffffffffffff00000000000000000000000000000000000000001673ffffffffffffffffffffffffffffffffffffffff83169081179091556040517fb23b23b0334d206fe936f8b4dead2981f475e53b596c32eca4f97e2f9913ab3690600090a250565b6060600d5482106115bf576040517f08c379a000000000000000000000000000000000000000000000000000000000815260206004820152601460248201527f544f4b454e5f444f45535f4e4f545f4558495354000000000000000000000000604482015260640161092a565b600e54600083815260036020526040908190205490517fb96efb7d0000000000000000000000000000000000000000000000000000000081526004810185905273ffffffffffffffffffffffffffffffffffffffff918216602482015291169063b96efb7d90604401600060405180830381865afa158015611645573d6000803e3d6000fd5b505050506040513d6000823e601f3d9081017fffffffffffffffffffffffffffffffffffffffffffffffffffffffffffffffe01682016040526106ed9190810190612eca565b600b5473ffffffffffffffffffffffffffffffffffffffff166116ac611aef565b73ffffffffffffffffffffffffffffffffffffffff1614611729576040517f08c379a000000000000000000000000000000000000000000000000000000000815260206004820152601360248201527f4f4e4c595f434f4e54524143545f4f574e455200000000000000000000000000604482015260640161092a565b73ffffffffffffffffffffffffffffffffffffffff919091166000908152600f6020526040902080547fffffffffffffffffffffffffffffffffffffffffffffffffffffffffffffff0016911515919091179055565b600b5473ffffffffffffffffffffffffffffffffffffffff166117a0611aef565b73ffffffffffffffffffffffffffffffffffffffff161461181d576040517f08c379a000000000000000000000000000000000000000000000000000000000815260206004820152601360248201527f4f4e4c595f434f4e54524143545f4f574e455200000000000000000000000000604482015260640161092a565b600680547fffffffffffffffffffffffff00000000000000000000000000000000000000001673ffffffffffffffffffffffffffffffffffffffff831617905550565b50565b600b5473ffffffffffffffffffffffffffffffffffffffff16611884611aef565b73ffffffffffffffffffffffffffffffffffffffff1614611901576040517f08c379a000000000000000000000000000000000000000000000000000000000815260206004820152601360248201527f4f4e4c595f434f4e54524143545f4f574e455200000000000000000000000000604482015260640161092a565b61186061191336839003830183612f41565b6125c5565b60007f01ffc9a7000000000000000000000000000000000000000000000000000000007fffffffff00000000000000000000000000000000000000000000000000000000831614806119ab57507f80ac58cd000000000000000000000000000000000000000000000000000000007fffffffff000000000000000000000000000000000000000000000000000000008316145b806106ed5750507fffffffff00000000000000000000000000000000000000000000000000000000167f5b5e139f000000000000000000000000000000000000000000000000000000001490565b60007fffffffff0000000000000000000000000000000000000000000000000000000082167f2a55205a000000000000000000000000000000000000000000000000000000001480611a8c57507fffffffff0000000000000000000000000000000000000000000000000000000082167fc69dbd8f00000000000000000000000000000000000000000000000000000000145b806106ed57507f01ffc9a7000000000000000000000000000000000000000000000000000000007fffffffff000000000000000000000000000000000000000000000000000000008316146106ed565b6000611ae88383612717565b9392505050565b600060143610801590611b19575060065473ffffffffffffffffffffffffffffffffffffffff1633145b15611b4957507fffffffffffffffffffffffffffffffffffffffffffffffffffffffffffffffec36013560601c90565b503390565b600c5473ffffffffffffffffffffffffffffffffffffffff16611bcd576040517f08c379a000000000000000000000000000000000000000000000000000000000815260206004820152600960248201527f5a45524f5f414444520000000000000000000000000000000000000000000000604482015260640161092a565b600c546040516024810183905273ffffffffffffffffffffffffffffffffffffffff7f0000000000000000000000000000000000000000000000000000000000000000811692633dbb202b92911690604401604080517fffffffffffffffffffffffffffffffffffffffffffffffffffffffffffffffe08184030181529181526020820180517bffffffffffffffffffffffffffffffffffffffffffffffffffffffff167f0adfc6df000000000000000000000000000000000000000000000000000000001790525160e084901b7fffffffff00000000000000000000000000000000000000000000000000000000168152611cd2929190620f424090600401612f9c565b600060405180830381600087803b158015611cec57600080fd5b505af1158015611d00573d6000803e3d6000fd5b5050505050565b60008181526003602052604090205473ffffffffffffffffffffffffffffffffffffffff848116911614611d97576040517f08c379a000000000000000000000000000000000000000000000000000000000815260206004820152600a60248201527f57524f4e475f46524f4d00000000000000000000000000000000000000000000604482015260640161092a565b73ffffffffffffffffffffffffffffffffffffffff8216611e14576040517f08c379a000000000000000000000000000000000000000000000000000000000815260206004820152601160248201527f494e56414c49445f524543495049454e54000000000000000000000000000000604482015260640161092a565b8273ffffffffffffffffffffffffffffffffffffffff16611e33611aef565b73ffffffffffffffffffffffffffffffffffffffff161480611e95575060008181526004602052604090205473ffffffffffffffffffffffffffffffffffffffff16611e7d611aef565b73ffffffffffffffffffffffffffffffffffffffff16145b80611ef4575073ffffffffffffffffffffffffffffffffffffffff8316600090815260056020526040812090611ec9611aef565b73ffffffffffffffffffffffffffffffffffffffff16815260208101919091526040016000205460ff165b611f5a576040517f08c379a000000000000000000000000000000000000000000000000000000000815260206004820152600e60248201527f4e4f545f415554484f52495a4544000000000000000000000000000000000000604482015260640161092a565b73ffffffffffffffffffffffffffffffffffffffff808416600081815260026020908152604080832080547fffffffffffffffffffffffffffffffffffffffffffffffffffffffffffffffff019055938616808352848320805460010190558583526003825284832080547fffffffffffffffffffffffff00000000000000000000000000000000000000009081168317909155600490925284832080549092169091559251849392917fddf252ad1be2c89b69c2b068fc378daa952ba7f163c4a11628f55a4df523b3ef91a4505050565b600c5473ffffffffffffffffffffffffffffffffffffffff166120ab576040517f08c379a000000000000000000000000000000000000000000000000000000000815260206004820152600960248201527f5a45524f5f414444520000000000000000000000000000000000000000000000604482015260640161092a565b600c546040805173ffffffffffffffffffffffffffffffffffffffff8581166024830152604480830186905283518084039091018152606490920183526020820180517bffffffffffffffffffffffffffffffffffffffffffffffffffffffff167febe528690000000000000000000000000000000000000000000000000000000017905291517f3dbb202b0000000000000000000000000000000000000000000000000000000081527f0000000000000000000000000000000000000000000000000000000000000000831693633dbb202b9361219393911691620f424090600401612f9c565b600060405180830381600087803b1580156121ad57600080fd5b505af11580156121c1573d6000803e3d6000fd5b505050505050565b60005b8151811015610a695760008282815181106121e9576121e9612fe1565b60200260200101519050612710816040015161ffff1610612266576040517f08c379a000000000000000000000000000000000000000000000000000000000815260206004820152600b60248201527f496e76616c696420627073000000000000000000000000000000000000000000604482015260640161092a565b602081015173ffffffffffffffffffffffffffffffffffffffff16612304578051600090815260086020526040902080547fffffffffffffffffffff0000000000000000000000000000000000000000000016905580516122c990600990612741565b5080516040519081527fa2870857763bd9ae76c957f869f16b31c18dd3bb4c7b4d3a4496dc5c57c657f99060200160405180910390a161240f565b60408051808201825260208084015173ffffffffffffffffffffffffffffffffffffffff90811683528484015161ffff9081168385019081528651600090815260089094529490922092518354945190921674010000000000000000000000000000000000000000027fffffffffffffffffffff0000000000000000000000000000000000000000000090941691161791909117905580516123a89060099061274d565b508051602080830151604080850151815194855273ffffffffffffffffffffffffffffffffffffffff9092169284019290925261ffff1682820152517f389b70fb0887f01e83784eb1c4c589f740eca53b00ed0f45e41db5d079719abb9181900360600190a15b508061241a81612e48565b9150506121cc565b73ffffffffffffffffffffffffffffffffffffffff821661249f576040517f08c379a000000000000000000000000000000000000000000000000000000000815260206004820152601160248201527f494e56414c49445f524543495049454e54000000000000000000000000000000604482015260640161092a565b60008181526003602052604090205473ffffffffffffffffffffffffffffffffffffffff161561252b576040517f08c379a000000000000000000000000000000000000000000000000000000000815260206004820152600e60248201527f414c52454144595f4d494e544544000000000000000000000000000000000000604482015260640161092a565b73ffffffffffffffffffffffffffffffffffffffff8216600081815260026020908152604080832080546001019055848352600390915280822080547fffffffffffffffffffffffff0000000000000000000000000000000000000000168417905551839291907fddf252ad1be2c89b69c2b068fc378daa952ba7f163c4a11628f55a4df523b3ef908290a45050565b60006106ed825490565b612710816020015161ffff1610612638576040517f08c379a000000000000000000000000000000000000000000000000000000000815260206004820152600b60248201527f496e76616c696420627073000000000000000000000000000000000000000000604482015260640161092a565b604080518082018252825173ffffffffffffffffffffffffffffffffffffffff168082526020808501805161ffff169190930181905260078054740100000000000000000000000000000000000000009092027fffffffffffffffffffff000000000000000000000000000000000000000000009092169092171790558251905191517f2c5ea6e4103e78cb101e796fb2dace540362fc542cbff5145eaa24af7dd8fe419261270c929173ffffffffffffffffffffffffffffffffffffffff92909216825261ffff16602082015260400190565b60405180910390a150565b600082600001828154811061272e5761272e612fe1565b9060005260206000200154905092915050565b6000611ae88383612759565b6000611ae8838361284c565b6000818152600183016020526040812054801561284257600061277d600183613010565b855490915060009061279190600190613010565b90508181146127f65760008660000182815481106127b1576127b1612fe1565b90600052602060002001549050808760000184815481106127d4576127d4612fe1565b6000918252602080832090910192909255918252600188019052604090208390555b855486908061280757612807613027565b6001900381819060005260206000200160009055905585600101600086815260200190815260200160002060009055600193505050506106ed565b60009150506106ed565b6000818152600183016020526040812054612893575081546001818101845560008481526020808220909301849055845484825282860190935260409020919091556106ed565b5060006106ed565b7fffffffff000000000000000000000000000000000000000000000000000000008116811461186057600080fd5b6000602082840312156128db57600080fd5b8135611ae88161289b565b6000602082840312156128f857600080fd5b5035919050565b60005b8381101561291a578181015183820152602001612902565b8381111561143f5750506000910152565b600081518084526129438160208601602086016128ff565b601f017fffffffffffffffffffffffffffffffffffffffffffffffffffffffffffffffe0169290920160200192915050565b602081526000611ae8602083018461292b565b803573ffffffffffffffffffffffffffffffffffffffff811681146129ac57600080fd5b919050565b600080604083850312156129c457600080fd5b6129cd83612988565b946020939093013593505050565b6000602082840312156129ed57600080fd5b611ae882612988565b600080600060608486031215612a0b57600080fd5b612a1484612988565b9250612a2260208501612988565b9150604084013590509250925092565b60008060408385031215612a4557600080fd5b50508035926020909101359150565b60008060208385031215612a6757600080fd5b823567ffffffffffffffff80821115612a7f57600080fd5b818501915085601f830112612a9357600080fd5b813581811115612aa257600080fd5b866020606083028501011115612ab757600080fd5b60209290920196919550909350505050565b60008060408385031215612adc57600080fd5b612ae583612988565b915060208301358015158114612afa57600080fd5b809150509250929050565b7f4e487b7100000000000000000000000000000000000000000000000000000000600052604160045260246000fd5b604051601f82017fffffffffffffffffffffffffffffffffffffffffffffffffffffffffffffffe016810167ffffffffffffffff81118282101715612b7b57612b7b612b05565b604052919050565b600067ffffffffffffffff821115612b9d57612b9d612b05565b50601f017fffffffffffffffffffffffffffffffffffffffffffffffffffffffffffffffe01660200190565b60008060008060808587031215612bdf57600080fd5b612be885612988565b9350612bf660208601612988565b925060408501359150606085013567ffffffffffffffff811115612c1957600080fd5b8501601f81018713612c2a57600080fd5b8035612c3d612c3882612b83565b612b34565b818152886020838501011115612c5257600080fd5b8160208401602083013760006020838301015280935050505092959194509250565b60008060408385031215612c8757600080fd5b612c9083612988565b9150612c9e60208401612988565b90509250929050565b600060408284031215612cb957600080fd5b50919050565b600181811c90821680612cd357607f821691505b60208210811415612cb9577f4e487b7100000000000000000000000000000000000000000000000000000000600052602260045260246000fd5b7f4e487b7100000000000000000000000000000000000000000000000000000000600052601160045260246000fd5b6000817fffffffffffffffffffffffffffffffffffffffffffffffffffffffffffffffff0483118215151615612d7457612d74612d0d565b500290565b600082612daf577f4e487b7100000000000000000000000000000000000000000000000000000000600052601260045260246000fd5b500490565b600060208284031215612dc657600080fd5b8151611ae88161289b565b803561ffff811681146129ac57600080fd5b600060608284031215612df557600080fd5b6040516060810181811067ffffffffffffffff82111715612e1857612e18612b05565b60405282358152612e2b60208401612988565b6020820152612e3c60408401612dd1565b60408201529392505050565b60007fffffffffffffffffffffffffffffffffffffffffffffffffffffffffffffffff821415612e7a57612e7a612d0d565b5060010190565b600073ffffffffffffffffffffffffffffffffffffffff808716835280861660208401525083604083015260806060830152612ec0608083018461292b565b9695505050505050565b600060208284031215612edc57600080fd5b815167ffffffffffffffff811115612ef357600080fd5b8201601f81018413612f0457600080fd5b8051612f12612c3882612b83565b818152856020838501011115612f2757600080fd5b612f388260208301602086016128ff565b95945050505050565b600060408284031215612f5357600080fd5b6040516040810181811067ffffffffffffffff82111715612f7657612f76612b05565b604052612f8283612988565b8152612f9060208401612dd1565b60208201529392505050565b73ffffffffffffffffffffffffffffffffffffffff84168152606060208201526000612fcb606083018561292b565b905063ffffffff83166040830152949350505050565b7f4e487b7100000000000000000000000000000000000000000000000000000000600052603260045260246000fd5b60008282101561302257613022612d0d565b500390565b7f4e487b7100000000000000000000000000000000000000000000000000000000600052603160045260246000fdfea264697066735822122078be88c498d31260b76f7120bce3b1d4e84a99d74904d766f9c05a1c95bda80f64736f6c634300080b0033",
    "linkReferences": {}
  }
}