{
  "abi": [
    {
      "inputs": [
        {
          "internalType": "address",
          "name": "personaContractAddress",
          "type": "address"
        }
      ],
      "stateMutability": "nonpayable",
      "type": "constructor"
    },
    {
      "inputs": [
        {
          "internalType": "address",
          "name": "minterAddress",
          "type": "address"
        }
      ],
      "name": "mintPersona",
      "outputs": [],
      "stateMutability": "nonpayable",
      "type": "function"
    },
    {
      "inputs": [],
      "name": "personaContract",
      "outputs": [
        {
          "internalType": "contract Persona",
          "name": "",
          "type": "address"
        }
      ],
      "stateMutability": "view",
      "type": "function"
    }
  ],
  "bytecode": {
    "object": "0x608060405234801561001057600080fd5b5060405161022738038061022783398101604081905261002f91610054565b600080546001600160a01b0319166001600160a01b0392909216919091179055610084565b60006020828403121561006657600080fd5b81516001600160a01b038116811461007d57600080fd5b9392505050565b610194806100936000396000f3fe608060405234801561001057600080fd5b50600436106100365760003560e01c8063dc9cb1281461003b578063e231a61a14610050575b600080fd5b61004e610049366004610121565b610099565b005b6000546100709073ffffffffffffffffffffffffffffffffffffffff1681565b60405173ffffffffffffffffffffffffffffffffffffffff909116815260200160405180910390f35b6000546040517f6a62784200000000000000000000000000000000000000000000000000000000815273ffffffffffffffffffffffffffffffffffffffff838116600483015290911690636a62784290602401600060405180830381600087803b15801561010657600080fd5b505af115801561011a573d6000803e3d6000fd5b5050505050565b60006020828403121561013357600080fd5b813573ffffffffffffffffffffffffffffffffffffffff8116811461015757600080fd5b939250505056fea264697066735822122074e667724a6d1ce8486554bbf7a3fb714882c034c623356da247a06efb7531e764736f6c634300080b0033",
    "linkReferences": {}
  }
}